:02000000F82ADC
:10000800FF00030E83018316B5000A08B3008A01B6
:1000180070088312A0000B1D37280B116430810073
:100028008316B40A3230340203181B2858280130CA
:100038008312ED008316B4018312EC0A3C306C0283
:10004800031827285828EC01EF0A3C306F020318E0
:100058002E285828EF018316B20A183032020318E6
:1000680036285828B2010B1C5828831286184528B0
:1000780003306B0203184328EB0A8B124528EB0167
:100088008B1606194B286B088316BD00992283121C
:100098000313861953286B088316BD00C722013045
:1000A80083120313ED000B1083122008F00083164F
:0E00B80033088A00350E8300FF0E7F0E09000C
:0400C600000008002E
:1000CA00103083120313FD00FD0B6928000008009D
:1000DA00083083120313FC002330FD00FD0B732844
:0600EA00FC0B7328080066
:1000F00083160313BC1B7F28831288128128831266
:10010000881683163C1B87288312081289288312BD
:1001100008168316BC1A8F2883128811912883121F
:10012000881583163C1A9728831208119928831280
:1001300008156E189D2808149E280810881463203E
:1001400088108316BC19A72883128812A928831245
:10015000881683163C19AF2883120812B12883121F
:1001600008168316BC18B72883128811B928831281
:10017000881583163C18BF2883120811C1288312E2
:1001800008156E18C5280814C6280810881463209E
:0E01900088106E1CCD286D20CE28652008003A
:10019E00831203136E1083163B08BC0078206E1476
:0201AE00080047
:1001B000EA28803083160313B700FD28C030B7004B
:1001C000FD289430B700FD28D430B700FD288030DA
:1001D000B700FD28831603133708013A0319D928FD
:1001E0003708023A0319DE283708033A0319E128D1
:1001F0003708043A0319E428E7283803F0003708E1
:10020000F0077008B7007008BC0078206E108316E5
:10021000BA013A08390784000008031918293A0876
:10022000390784000008BB00CF208316BA0A0929C9
:0602300083126E140800A9
:1002360083120313F8010830FC00700DF80D7408E2
:10024600F80203182829F8070310F00DFC0B2029E3
:0202560008009E
:0E025800831203136A088A00690882000800F6
:10026600831603138614061586150E3096008B1515
:0802760003178801890108004B
:10027E000A3083120313F40083163208F0001B2198
:10028E000A30F4001B217808F00030307007831616
:10029E00A9000A30F4003208F0001B217808F000A3
:1002AE00303070078316AA000A30F40083126F08EC
:1002BE00F0001B210A30F4001B217808F0003030CA
:1002CE0070078316AC000A30F40083126F08F0003A
:1002DE001B217808F000303070078316AD000A300D
:1002EE00F40083126C08F0001B210A30F4001B216D
:1002FE007808F000303070078316AF000A30F40033
:10030E0083126C08F0001B217808F0003030700763
:10031E008316B0000130B7000130B800A930B90023
:10032E00D820BD2902308316B7000130B800413005
:10033E00B900D820CD2902308316B7000130B8009D
:10034E005F30B900D820CD2902308316B7000130B6
:10035E00B8005530B900D820CD2902308316B70029
:10036E000130B8004B30B900D820CD296B08003AC7
:10037E00031999296B08013A0319A2296B08023A4D
:0E038E000319AB296B08033A0319B4290800C0
:10039C00013083160313B7000530B8003830B900AC
:1003AC00D82002308316B7000130B8002130B900D4
:1003BC00D8208316B601083036020318F4291830F9
:1003CC00BC0078204130FC00EE30FD00FD0BEC2928
:1003DC00FC0BEC2900008316B60AE129B6010830A3
:1003EC0036020318082A1C30BC0078204130FC006F
:1003FC00EE30FD00FD0B002AFC0B002A00008316DA
:10040C00B60AF5290130BC0078208316B6010830F5
:10041C0036020318312A0130B7000530B800A0307D
:10042C00B900D8209C30FC00D730FD00FD0B1C2AF5
:10043C00FC0B1C2A01308316BC0078200D30FC000C
:10044C00FB30FD00FD0B282AFC0B282A00000000C5
:0E045C008316B60A0D2A0130BC007820080075
:10046A0083160313881008100811881108128812BD
:10047A0083128810081088120812881108116D203A
:10048A006D206D20881508158814632088106D204A
:10049A008814632088106D208814632088106D20CA
:1004AA0008118814632088106D208814632088102E
:1004BA00881188168814632088106D208812081500
:1004CA0088146320881008118814632088106D200E
:1004DA0088146320881008158814632088106D20FA
:1004EA0008118814632088108816081688150815BC
:0C04FA008814632088106D206E14080028
:100506008630831603138100643083128100A03085
:040516008B0008004E
:10051A002C218A110A128000840AE90A0319EA0ABC
:08052A00F003031D8D2A0800F7
:10053200B72A18308316031332020318A22AB20A0A
:10054200A32AB201C62A3C3083126F020318AB2AD7
:10055200EF0AAC2AEF01C62A83123C306C02031860
:10056200B42AEC0AB52AEC01C62AC62A831603135A
:100572003D08013A03199A2A3D08023A0319A42AAE
:0C0582003D08033A0319AD2AB62A080010
:10058E00E82A831603133208003C0318D02AB2035C
:10059E00D22A1730B200F72A83126F08003C0318D4
:1005AE00DA2AEF03DC2A3B30EF00F72A83126C08BD
:1005BE00003C0318E42AEC03E62A3B30EC00F72A51
:1005CE00F72A831603133D08013A0319C82A3D087A
:1005DE00023A0319D32A3D08033A0319DD2AE72A02
:0205EE00080003
:1005F0006C23352201308316BC0078200C30831622
:10060000BC007820CE21832233213F216D080319BD
:0A0610000B2BED013F21062B0C2BF4
:1006D80021308400483083120313F0001230E900FF
:1006E8000330EA008D22A030840012308312F0001B
:0C06F8005A30E9000330EA008D220800AF
:100624004B34653465347034203469347434203484
:10063400733469346D3470346C3465342C34203440
:0E0644007334743475347034693464340034A3
:100652004B342E3449342E3453342E3453342E3406
:02066200003462
:1006640020342034203420342034203420342034E6
:0406740020340034FA
:1006780020342034203420342034203420345E3494
:0406880020340034E6
:10068C0020342034203420345E3420342034203480
:04069C0020340034D2
:1006A00020345E342034203420342034203420346C
:0406B00020340034BE
:1006B4004B342E3449342E3453342E3453342E34A4
:0206C400003400
:1006C600683468343A346D346D343A347334733480
:0206D6000034EE
:04400E00F22F000786
:00000001FF
